{
  "_format": "hh-sol-artifact-1",
  "contractName": "TokenICO",
  "sourceName": "contracts/TokenICO.sol",
  "abi": [
    {
      "inputs": [],
      "stateMutability": "nonpayable",
      "type": "constructor"
    },
    {
      "anonymous": false,
      "inputs": [
        {
          "indexed": true,
          "internalType": "address",
          "name": "user",
          "type": "address"
        },
        {
          "indexed": false,
          "internalType": "bool",
          "name": "blocked",
          "type": "bool"
        }
      ],
      "name": "AddressBlocked",
      "type": "event"
    },
    {
      "anonymous": false,
      "inputs": [
        {
          "indexed": false,
          "internalType": "string",
          "name": "priceType",
          "type": "string"
        },
        {
          "indexed": false,
          "internalType": "uint256",
          "name": "oldPrice",
          "type": "uint256"
        },
        {
          "indexed": false,
          "internalType": "uint256",
          "name": "newPrice",
          "type": "uint256"
        }
      ],
      "name": "PriceUpdated",
      "type": "event"
    },
    {
      "anonymous": false,
      "inputs": [
        {
          "indexed": true,
          "internalType": "address",
          "name": "buyer",
          "type": "address"
        },
        {
          "indexed": true,
          "internalType": "address",
          "name": "paymentMethod",
          "type": "address"
        },
        {
          "indexed": false,
          "internalType": "uint256",
          "name": "amountPaid",
          "type": "uint256"
        },
        {
          "indexed": false,
          "internalType": "uint256",
          "name": "tokensBought",
          "type": "uint256"
        },
        {
          "indexed": false,
          "internalType": "uint256",
          "name": "timestamp",
          "type": "uint256"
        }
      ],
      "name": "TokensPurchased",
      "type": "event"
    },
    {
      "inputs": [
        {
          "internalType": "uint256",
          "name": "",
          "type": "uint256"
        }
      ],
      "name": "allTransactions",
      "outputs": [
        {
          "internalType": "uint256",
          "name": "timestamp",
          "type": "uint256"
        },
        {
          "internalType": "address",
          "name": "user",
          "type": "address"
        },
        {
          "internalType": "address",
          "name": "tokenIn",
          "type": "address"
        },
        {
          "internalType": "address",
          "name": "tokenOut",
          "type": "address"
        },
        {
          "internalType": "uint256",
          "name": "amountIn",
          "type": "uint256"
        },
        {
          "internalType": "uint256",
          "name": "amountOut",
          "type": "uint256"
        },
        {
          "internalType": "string",
          "name": "transactionType",
          "type": "string"
        }
      ],
      "stateMutability": "view",
      "type": "function"
    },
    {
      "inputs": [
        {
          "internalType": "address",
          "name": "",
          "type": "address"
        }
      ],
      "name": "blockedAddresses",
      "outputs": [
        {
          "internalType": "bool",
          "name": "",
          "type": "bool"
        }
      ],
      "stateMutability": "view",
      "type": "function"
    },
    {
      "inputs": [],
      "name": "buyWithETH",
      "outputs": [],
      "stateMutability": "payable",
      "type": "function"
    },
    {
      "inputs": [
        {
          "internalType": "uint256",
          "name": "usdcAmount",
          "type": "uint256"
        }
      ],
      "name": "buyWithUSDC",
      "outputs": [],
      "stateMutability": "nonpayable",
      "type": "function"
    },
    {
      "inputs": [
        {
          "internalType": "uint256",
          "name": "usdtAmount",
          "type": "uint256"
        }
      ],
      "name": "buyWithUSDT",
      "outputs": [],
      "stateMutability": "nonpayable",
      "type": "function"
    },
    {
      "inputs": [],
      "name": "ethPriceForToken",
      "outputs": [
        {
          "internalType": "uint256",
          "name": "",
          "type": "uint256"
        }
      ],
      "stateMutability": "view",
      "type": "function"
    },
    {
      "inputs": [],
      "name": "getAllTransactions",
      "outputs": [
        {
          "components": [
            {
              "internalType": "uint256",
              "name": "timestamp",
              "type": "uint256"
            },
            {
              "internalType": "address",
              "name": "user",
              "type": "address"
            },
            {
              "internalType": "address",
              "name": "tokenIn",
              "type": "address"
            },
            {
              "internalType": "address",
              "name": "tokenOut",
              "type": "address"
            },
            {
              "internalType": "uint256",
              "name": "amountIn",
              "type": "uint256"
            },
            {
              "internalType": "uint256",
              "name": "amountOut",
              "type": "uint256"
            },
            {
              "internalType": "string",
              "name": "transactionType",
              "type": "string"
            }
          ],
          "internalType": "struct TokenICO.Transaction[]",
          "name": "",
          "type": "tuple[]"
        }
      ],
      "stateMutability": "view",
      "type": "function"
    },
    {
      "inputs": [],
      "name": "getContractInfo",
      "outputs": [
        {
          "internalType": "address",
          "name": "tokenAddress",
          "type": "address"
        },
        {
          "internalType": "uint256",
          "name": "tokenBalance",
          "type": "uint256"
        },
        {
          "internalType": "uint256",
          "name": "ethPrice",
          "type": "uint256"
        },
        {
          "internalType": "uint256",
          "name": "totalSold",
          "type": "uint256"
        },
        {
          "internalType": "address",
          "name": "usdtAddr",
          "type": "address"
        },
        {
          "internalType": "address",
          "name": "usdcAddr",
          "type": "address"
        },
        {
          "internalType": "uint256",
          "name": "usdtTokenRatio",
          "type": "uint256"
        },
        {
          "internalType": "uint256",
          "name": "usdcTokenRatio",
          "type": "uint256"
        }
      ],
      "stateMutability": "view",
      "type": "function"
    },
    {
      "inputs": [],
      "name": "getTokenBalances",
      "outputs": [
        {
          "internalType": "uint256",
          "name": "tokenBalance",
          "type": "uint256"
        },
        {
          "internalType": "uint256",
          "name": "usdtBalance",
          "type": "uint256"
        },
        {
          "internalType": "uint256",
          "name": "usdcBalance",
          "type": "uint256"
        }
      ],
      "stateMutability": "view",
      "type": "function"
    },
    {
      "inputs": [
        {
          "internalType": "address",
          "name": "user",
          "type": "address"
        }
      ],
      "name": "getUserTransactions",
      "outputs": [
        {
          "components": [
            {
              "internalType": "uint256",
              "name": "timestamp",
              "type": "uint256"
            },
            {
              "internalType": "address",
              "name": "user",
              "type": "address"
            },
            {
              "internalType": "address",
              "name": "tokenIn",
              "type": "address"
            },
            {
              "internalType": "address",
              "name": "tokenOut",
              "type": "address"
            },
            {
              "internalType": "uint256",
              "name": "amountIn",
              "type": "uint256"
            },
            {
              "internalType": "uint256",
              "name": "amountOut",
              "type": "uint256"
            },
            {
              "internalType": "string",
              "name": "transactionType",
              "type": "string"
            }
          ],
          "internalType": "struct TokenICO.Transaction[]",
          "name": "",
          "type": "tuple[]"
        }
      ],
      "stateMutability": "view",
      "type": "function"
    },
    {
      "inputs": [],
      "name": "owner",
      "outputs": [
        {
          "internalType": "address",
          "name": "",
          "type": "address"
        }
      ],
      "stateMutability": "view",
      "type": "function"
    },
    {
      "inputs": [],
      "name": "saleToken",
      "outputs": [
        {
          "internalType": "address",
          "name": "",
          "type": "address"
        }
      ],
      "stateMutability": "view",
      "type": "function"
    },
    {
      "inputs": [
        {
          "internalType": "address",
          "name": "user",
          "type": "address"
        },
        {
          "internalType": "bool",
          "name": "blocked",
          "type": "bool"
        }
      ],
      "name": "setBlockStatus",
      "outputs": [],
      "stateMutability": "nonpayable",
      "type": "function"
    },
    {
      "inputs": [
        {
          "internalType": "address",
          "name": "_token",
          "type": "address"
        }
      ],
      "name": "setSaleToken",
      "outputs": [],
      "stateMutability": "nonpayable",
      "type": "function"
    },
    {
      "inputs": [],
      "name": "tokensSold",
      "outputs": [
        {
          "internalType": "uint256",
          "name": "",
          "type": "uint256"
        }
      ],
      "stateMutability": "view",
      "type": "function"
    },
    {
      "inputs": [
        {
          "internalType": "uint256",
          "name": "newPrice",
          "type": "uint256"
        }
      ],
      "name": "updateTokenPrice",
      "outputs": [],
      "stateMutability": "nonpayable",
      "type": "function"
    },
    {
      "inputs": [
        {
          "internalType": "address",
          "name": "newAddress",
          "type": "address"
        },
        {
          "internalType": "uint256",
          "name": "newRatio",
          "type": "uint256"
        }
      ],
      "name": "updateUSDC",
      "outputs": [],
      "stateMutability": "nonpayable",
      "type": "function"
    },
    {
      "inputs": [
        {
          "internalType": "address",
          "name": "newAddress",
          "type": "address"
        },
        {
          "internalType": "uint256",
          "name": "newRatio",
          "type": "uint256"
        }
      ],
      "name": "updateUSDT",
      "outputs": [],
      "stateMutability": "nonpayable",
      "type": "function"
    },
    {
      "inputs": [],
      "name": "usdcAddress",
      "outputs": [
        {
          "internalType": "address",
          "name": "",
          "type": "address"
        }
      ],
      "stateMutability": "view",
      "type": "function"
    },
    {
      "inputs": [],
      "name": "usdcRatio",
      "outputs": [
        {
          "internalType": "uint256",
          "name": "",
          "type": "uint256"
        }
      ],
      "stateMutability": "view",
      "type": "function"
    },
    {
      "inputs": [],
      "name": "usdtAddress",
      "outputs": [
        {
          "internalType": "address",
          "name": "",
          "type": "address"
        }
      ],
      "stateMutability": "view",
      "type": "function"
    },
    {
      "inputs": [],
      "name": "usdtRatio",
      "outputs": [
        {
          "internalType": "uint256",
          "name": "",
          "type": "uint256"
        }
      ],
      "stateMutability": "view",
      "type": "function"
    },
    {
      "inputs": [
        {
          "internalType": "address",
          "name": "",
          "type": "address"
        },
        {
          "internalType": "uint256",
          "name": "",
          "type": "uint256"
        }
      ],
      "name": "userTransactions",
      "outputs": [
        {
          "internalType": "uint256",
          "name": "timestamp",
          "type": "uint256"
        },
        {
          "internalType": "address",
          "name": "user",
          "type": "address"
        },
        {
          "internalType": "address",
          "name": "tokenIn",
          "type": "address"
        },
        {
          "internalType": "address",
          "name": "tokenOut",
          "type": "address"
        },
        {
          "internalType": "uint256",
          "name": "amountIn",
          "type": "uint256"
        },
        {
          "internalType": "uint256",
          "name": "amountOut",
          "type": "uint256"
        },
        {
          "internalType": "string",
          "name": "transactionType",
          "type": "string"
        }
      ],
      "stateMutability": "view",
      "type": "function"
    },
    {
      "inputs": [
        {
          "internalType": "address",
          "name": "_token",
          "type": "address"
        },
        {
          "internalType": "uint256",
          "name": "_amount",
          "type": "uint256"
        }
      ],
      "name": "withdrawTokens",
      "outputs": [],
      "stateMutability": "nonpayable",
      "type": "function"
    }
  ],
  "bytecode": "0x60a060405266038d7ea4c6800060035534801561001b57600080fd5b503373ffffffffffffffffffffffffffffffffffffffff1660808173ffffffffffffffffffffffffffffffffffffffff168152505060146004819055506014600581905550608051613a736100c1600039600081816105ac01528181610656015281816108a8015281816109e101528181610b1801528181610edb01528181611136015281816113630152818161170a01528181611b510152611d310152613a736000f3fe60806040526004361061014b5760003560e01c80638da5cb5b116100b6578063b006984f1161006f578063b006984f14610442578063b842ec441461046b578063c605af53146104ae578063d7ff0714146104d9578063e985e3671461051c578063ef925399146105475761014b565b80638da5cb5b146103445780639ab4a4451461036f578063a1dc90311461039a578063a29f481c146103c7578063a7c60160146103f0578063aeccf735146104195761014b565b80634f93208a116101085780634f93208a1461022b578063518ab2a814610268578063676c0d77146102935780636f43f373146102bc5780637cc1f867146102e757806383fabe03146103195761014b565b806302d454571461015057806306b091f91461017b578063150d283d146101a4578063182a676b146101ae5780631e37c606146101d757806327506f5314610200575b600080fd5b34801561015c57600080fd5b50610165610584565b60405161017291906128e0565b60405180910390f35b34801561018757600080fd5b506101a2600480360381019061019d9190612962565b6105aa565b005b6101ac610719565b005b3480156101ba57600080fd5b506101d560048036038101906101d091906129da565b6109df565b005b3480156101e357600080fd5b506101fe60048036038101906101f99190612962565b610b16565b005b34801561020c57600080fd5b50610215610ca2565b6040516102229190612c26565b60405180910390f35b34801561023757600080fd5b50610252600480360381019061024d9190612c48565b610eb3565b60405161025f9190612c84565b60405180910390f35b34801561027457600080fd5b5061027d610ed3565b60405161028a9190612cae565b60405180910390f35b34801561029f57600080fd5b506102ba60048036038101906102b59190612cc9565b610ed9565b005b3480156102c857600080fd5b506102d1610ff5565b6040516102de9190612cae565b60405180910390f35b3480156102f357600080fd5b506102fc610ffb565b604051610310989796959493929190612cf6565b60405180910390f35b34801561032557600080fd5b5061032e61112e565b60405161033b9190612cae565b60405180910390f35b34801561035057600080fd5b50610359611134565b60405161036691906128e0565b60405180910390f35b34801561037b57600080fd5b50610384611158565b60405161039191906128e0565b60405180910390f35b3480156103a657600080fd5b506103af61117e565b6040516103be93929190612d74565b60405180910390f35b3480156103d357600080fd5b506103ee60048036038101906103e99190612c48565b611361565b005b3480156103fc57600080fd5b5061041760048036038101906104129190612cc9565b6114a1565b005b34801561042557600080fd5b50610440600480360381019061043b9190612cc9565b6118e8565b005b34801561044e57600080fd5b5061046960048036038101906104649190612962565b611d2f565b005b34801561047757600080fd5b50610492600480360381019061048d9190612962565b611ebb565b6040516104a59796959493929190612df5565b60405180910390f35b3480156104ba57600080fd5b506104c3612002565b6040516104d09190612cae565b60405180910390f35b3480156104e557600080fd5b5061050060048036038101906104fb9190612cc9565b612008565b6040516105139796959493929190612df5565b60405180910390f35b34801561052857600080fd5b50610531612142565b60405161053e91906128e0565b60405180910390f35b34801561055357600080fd5b5061056e60048036038101906105699190612c48565b612166565b60405161057b9190612c26565b60405180910390f35b600260009054906101000a900473ffffffffffffffffffffffffffffffffffffffff1681565b7f000000000000000000000000000000000000000000000000000000000000000073ffffffffffffffffffffffffffffffffffffffff163373ffffffffffffffffffffffffffffffffffffffff1614610638576040517f08c379a000000000000000000000000000000000000000000000000000000000815260040161062f90612eb7565b60405180910390fd5b8173ffffffffffffffffffffffffffffffffffffffff1663a9059cbb7f0000000000000000000000000000000000000000000000000000000000000000836040518363ffffffff1660e01b8152600401610693929190612ed7565b6020604051808303816000875af11580156106b2573d6000803e3d6000fd5b505050506040513d601f19601f820116820180604052508101906106d69190612f15565b610715576040517f08c379a000000000000000000000000000000000000000000000000000000000815260040161070c90612f8e565b60405180910390fd5b5050565b600760003373ffffffffffffffffffffffffffffffffffffffff1673ffffffffffffffffffffffffffffffffffffffff16815260200190815260200160002060009054906101000a900460ff16156107a6576040517f08c379a000000000000000000000000000000000000000000000000000000000815260040161079d90612ffa565b60405180910390fd5b600034116107e9576040517f08c379a00000000000000000000000000000000000000000000000000000000081526004016107e090613066565b60405180910390fd5b600073ffffffffffffffffffffffffffffffffffffffff1660008054906101000a900473ffffffffffffffffffffffffffffffffffffffff1673ffffffffffffffffffffffffffffffffffffffff1603610878576040517f08c379a000000000000000000000000000000000000000000000000000000000815260040161086f906130d2565b60405180910390fd5b6000600354670de0b6b3a7640000346108919190613121565b61089b9190613192565b90506108a6816123b6565b7f000000000000000000000000000000000000000000000000000000000000000073ffffffffffffffffffffffffffffffffffffffff166108fc349081150290604051600060405180830381858888f1935050505015801561090c573d6000803e3d6000fd5b506109723360008060009054906101000a900473ffffffffffffffffffffffffffffffffffffffff1634856040518060400160405280600381526020017f4255590000000000000000000000000000000000000000000000000000000000815250612572565b600073ffffffffffffffffffffffffffffffffffffffff163373ffffffffffffffffffffffffffffffffffffffff167f377aadedb6b2a771959584d10a6a36eccb5f56b4eb3a48525f76108d2660d8d43484426040516109d493929190612d74565b60405180910390a350565b7f000000000000000000000000000000000000000000000000000000000000000073ffffffffffffffffffffffffffffffffffffffff163373ffffffffffffffffffffffffffffffffffffffff1614610a6d576040517f08c379a0000000000000000000000000000000000000000000000000000000008152600401610a6490612eb7565b60405180910390fd5b80600760008473ffffffffffffffffffffffffffffffffffffffff1673ffffffffffffffffffffffffffffffffffffffff16815260200190815260200160002060006101000a81548160ff0219169083151502179055508173ffffffffffffffffffffffffffffffffffffffff167fdda6207409a585801122fb885dcaa8074f9a21f25ff2def680c67f01a86c2c9b82604051610b0a9190612c84565b60405180910390a25050565b7f000000000000000000000000000000000000000000000000000000000000000073ffffffffffffffffffffffffffffffffffffffff163373ffffffffffffffffffffffffffffffffffffffff1614610ba4576040517f08c379a0000000000000000000000000000000000000000000000000000000008152600401610b9b90612eb7565b60405180910390fd5b600073ffffffffffffffffffffffffffffffffffffffff168273ffffffffffffffffffffffffffffffffffffffff1603610c13576040517f08c379a0000000000000000000000000000000000000000000000000000000008152600401610c0a9061320f565b60405180910390fd5b60008111610c56576040517f08c379a0000000000000000000000000000000000000000000000000000000008152600401610c4d9061327b565b60405180910390fd5b81600260006101000a81548173ffffffffffffffffffffffffffffffffffffffff021916908373ffffffffffffffffffffffffffffffffffffffff160217905550806005819055505050565b60606009805480602002602001604051908101604052809291908181526020016000905b82821015610eaa57838290600052602060002090600702016040518060e0016040529081600082015481526020016001820160009054906101000a900473ffffffffffffffffffffffffffffffffffffffff1673ffffffffffffffffffffffffffffffffffffffff1673ffffffffffffffffffffffffffffffffffffffff1681526020016002820160009054906101000a900473ffffffffffffffffffffffffffffffffffffffff1673ffffffffffffffffffffffffffffffffffffffff1673ffffffffffffffffffffffffffffffffffffffff1681526020016003820160009054906101000a900473ffffffffffffffffffffffffffffffffffffffff1673ffffffffffffffffffffffffffffffffffffffff1673ffffffffffffffffffffffffffffffffffffffff1681526020016004820154815260200160058201548152602001600682018054610e19906132ca565b80601f0160208091040260200160405190810160405280929190818152602001828054610e45906132ca565b8015610e925780601f10610e6757610100808354040283529160200191610e92565b820191906000526020600020905b815481529060010190602001808311610e7557829003601f168201915b50505050508152505081526020019060010190610cc6565b50505050905090565b60076020528060005260406000206000915054906101000a900460ff1681565b60065481565b7f000000000000000000000000000000000000000000000000000000000000000073ffffffffffffffffffffffffffffffffffffffff163373ffffffffffffffffffffffffffffffffffffffff1614610f67576040517f08c379a0000000000000000000000000000000000000000000000000000000008152600401610f5e90612eb7565b60405180910390fd5b60008111610faa576040517f08c379a0000000000000000000000000000000000000000000000000000000008152600401610fa190613347565b60405180910390fd5b60006003549050816003819055507f6e838f2a03741f5f2aff5480963b672fb0dd8430a4dc75db9b67ce009733c9fe8183604051610fe99291906133b3565b60405180910390a15050565b60055481565b60008060008060008060008060008054906101000a900473ffffffffffffffffffffffffffffffffffffffff1660008054906101000a900473ffffffffffffffffffffffffffffffffffffffff1673ffffffffffffffffffffffffffffffffffffffff166370a08231306040518263ffffffff1660e01b815260040161108191906128e0565b602060405180830381865afa15801561109e573d6000803e3d6000fd5b505050506040513d601f19601f820116820180604052508101906110c29190613404565b600354600654600160009054906101000a900473ffffffffffffffffffffffffffffffffffffffff16600260009054906101000a900473ffffffffffffffffffffffffffffffffffffffff16600454600554975097509750975097509750975097509091929394959697565b60045481565b7f000000000000000000000000000000000000000000000000000000000000000081565b600160009054906101000a900473ffffffffffffffffffffffffffffffffffffffff1681565b60008060008060009054906101000a900473ffffffffffffffffffffffffffffffffffffffff1673ffffffffffffffffffffffffffffffffffffffff166370a08231306040518263ffffffff1660e01b81526004016111dd91906128e0565b602060405180830381865afa1580156111fa573d6000803e3d6000fd5b505050506040513d601f19601f8201168201806040525081019061121e9190613404565b600160009054906101000a900473ffffffffffffffffffffffffffffffffffffffff1673ffffffffffffffffffffffffffffffffffffffff166370a08231306040518263ffffffff1660e01b815260040161127991906128e0565b602060405180830381865afa158015611296573d6000803e3d6000fd5b505050506040513d601f19601f820116820180604052508101906112ba9190613404565b600260009054906101000a900473ffffffffffffffffffffffffffffffffffffffff1673ffffffffffffffffffffffffffffffffffffffff166370a08231306040518263ffffffff1660e01b815260040161131591906128e0565b602060405180830381865afa158015611332573d6000803e3d6000fd5b505050506040513d601f19601f820116820180604052508101906113569190613404565b925092509250909192565b7f000000000000000000000000000000000000000000000000000000000000000073ffffffffffffffffffffffffffffffffffffffff163373ffffffffffffffffffffffffffffffffffffffff16146113ef576040517f08c379a00000000000000000000000000000000000000000000000000000000081526004016113e690612eb7565b60405180910390fd5b600073ffffffffffffffffffffffffffffffffffffffff168173ffffffffffffffffffffffffffffffffffffffff160361145e576040517f08c379a00000000000000000000000000000000000000000000000000000000081526004016114559061320f565b60405180910390fd5b806000806101000a81548173ffffffffffffffffffffffffffffffffffffffff021916908373ffffffffffffffffffffffffffffffffffffffff16021790555050565b600760003373ffffffffffffffffffffffffffffffffffffffff1673ffffffffffffffffffffffffffffffffffffffff16815260200190815260200160002060009054906101000a900460ff161561152e576040517f08c379a000000000000000000000000000000000000000000000000000000000815260040161152590612ffa565b60405180910390fd5b60008111611571576040517f08c379a00000000000000000000000000000000000000000000000000000000081526004016115689061347d565b60405180910390fd5b600073ffffffffffffffffffffffffffffffffffffffff1660008054906101000a900473ffffffffffffffffffffffffffffffffffffffff1673ffffffffffffffffffffffffffffffffffffffff1603611600576040517f08c379a00000000000000000000000000000000000000000000000000000000081526004016115f7906130d2565b60405180910390fd5b600073ffffffffffffffffffffffffffffffffffffffff16600160009054906101000a900473ffffffffffffffffffffffffffffffffffffffff1673ffffffffffffffffffffffffffffffffffffffff1603611691576040517f08c379a0000000000000000000000000000000000000000000000000000000008152600401611688906134e9565b60405180910390fd5b6000620f4240826116a29190613121565b90506000670de0b6b3a7640000600454846116bd9190613121565b6116c79190613121565b9050600160009054906101000a900473ffffffffffffffffffffffffffffffffffffffff1673ffffffffffffffffffffffffffffffffffffffff166323b872dd337f0000000000000000000000000000000000000000000000000000000000000000856040518463ffffffff1660e01b815260040161174893929190613509565b6020604051808303816000875af1158015611767573d6000803e3d6000fd5b505050506040513d601f19601f8201168201806040525081019061178b9190612f15565b6117ca576040517f08c379a00000000000000000000000000000000000000000000000000000000081526004016117c19061358c565b60405180910390fd5b6117d3816123b6565b61185833600160009054906101000a900473ffffffffffffffffffffffffffffffffffffffff1660008054906101000a900473ffffffffffffffffffffffffffffffffffffffff1686856040518060400160405280600381526020017f4255590000000000000000000000000000000000000000000000000000000000815250612572565b600160009054906101000a900473ffffffffffffffffffffffffffffffffffffffff1673ffffffffffffffffffffffffffffffffffffffff163373ffffffffffffffffffffffffffffffffffffffff167f377aadedb6b2a771959584d10a6a36eccb5f56b4eb3a48525f76108d2660d8d48584426040516118db93929190612d74565b60405180910390a3505050565b600760003373ffffffffffffffffffffffffffffffffffffffff1673ffffffffffffffffffffffffffffffffffffffff16815260200190815260200160002060009054906101000a900460ff1615611975576040517f08c379a000000000000000000000000000000000000000000000000000000000815260040161196c90612ffa565b60405180910390fd5b600081116119b8576040517f08c379a00000000000000000000000000000000000000000000000000000000081526004016119af9061347d565b60405180910390fd5b600073ffffffffffffffffffffffffffffffffffffffff1660008054906101000a900473ffffffffffffffffffffffffffffffffffffffff1673ffffffffffffffffffffffffffffffffffffffff1603611a47576040517f08c379a0000000000000000000000000000000000000000000000000000000008152600401611a3e906130d2565b60405180910390fd5b600073ffffffffffffffffffffffffffffffffffffffff16600260009054906101000a900473ffffffffffffffffffffffffffffffffffffffff1673ffffffffffffffffffffffffffffffffffffffff1603611ad8576040517f08c379a0000000000000000000000000000000000000000000000000000000008152600401611acf906135f8565b60405180910390fd5b6000620f424082611ae99190613121565b90506000670de0b6b3a764000060055484611b049190613121565b611b0e9190613121565b9050600260009054906101000a900473ffffffffffffffffffffffffffffffffffffffff1673ffffffffffffffffffffffffffffffffffffffff166323b872dd337f0000000000000000000000000000000000000000000000000000000000000000856040518463ffffffff1660e01b8152600401611b8f93929190613509565b6020604051808303816000875af1158015611bae573d6000803e3d6000fd5b505050506040513d601f19601f82011682018060405250810190611bd29190612f15565b611c11576040517f08c379a0000000000000000000000000000000000000000000000000000000008152600401611c0890613664565b60405180910390fd5b611c1a816123b6565b611c9f33600260009054906101000a900473ffffffffffffffffffffffffffffffffffffffff1660008054906101000a900473ffffffffffffffffffffffffffffffffffffffff1686856040518060400160405280600381526020017f4255590000000000000000000000000000000000000000000000000000000000815250612572565b600260009054906101000a900473ffffffffffffffffffffffffffffffffffffffff1673ffffffffffffffffffffffffffffffffffffffff163373ffffffffffffffffffffffffffffffffffffffff167f377aadedb6b2a771959584d10a6a36eccb5f56b4eb3a48525f76108d2660d8d4858442604051611d2293929190612d74565b60405180910390a3505050565b7f000000000000000000000000000000000000000000000000000000000000000073ffffffffffffffffffffffffffffffffffffffff163373ffffffffffffffffffffffffffffffffffffffff1614611dbd576040517f08c379a0000000000000000000000000000000000000000000000000000000008152600401611db490612eb7565b60405180910390fd5b600073ffffffffffffffffffffffffffffffffffffffff168273ffffffffffffffffffffffffffffffffffffffff1603611e2c576040517f08c379a0000000000000000000000000000000000000000000000000000000008152600401611e239061320f565b60405180910390fd5b60008111611e6f576040517f08c379a0000000000000000000000000000000000000000000000000000000008152600401611e669061327b565b60405180910390fd5b81600160006101000a81548173ffffffffffffffffffffffffffffffffffffffff021916908373ffffffffffffffffffffffffffffffffffffffff160217905550806004819055505050565b60086020528160005260406000208181548110611ed757600080fd5b9060005260206000209060070201600091509150508060000154908060010160009054906101000a900473ffffffffffffffffffffffffffffffffffffffff16908060020160009054906101000a900473ffffffffffffffffffffffffffffffffffffffff16908060030160009054906101000a900473ffffffffffffffffffffffffffffffffffffffff1690806004015490806005015490806006018054611f7f906132ca565b80601f0160208091040260200160405190810160405280929190818152602001828054611fab906132ca565b8015611ff85780601f10611fcd57610100808354040283529160200191611ff8565b820191906000526020600020905b815481529060010190602001808311611fdb57829003601f168201915b5050505050905087565b60035481565b6009818154811061201857600080fd5b90600052602060002090600702016000915090508060000154908060010160009054906101000a900473ffffffffffffffffffffffffffffffffffffffff16908060020160009054906101000a900473ffffffffffffffffffffffffffffffffffffffff16908060030160009054906101000a900473ffffffffffffffffffffffffffffffffffffffff16908060040154908060050154908060060180546120bf906132ca565b80601f01602080910402602001604051908101604052809291908181526020018280546120eb906132ca565b80156121385780601f1061210d57610100808354040283529160200191612138565b820191906000526020600020905b81548152906001019060200180831161211b57829003601f168201915b5050505050905087565b60008054906101000a900473ffffffffffffffffffffffffffffffffffffffff1681565b6060600860008373ffffffffffffffffffffffffffffffffffffffff1673ffffffffffffffffffffffffffffffffffffffff168152602001908152602001600020805480602002602001604051908101604052809291908181526020016000905b828210156123ab57838290600052602060002090600702016040518060e0016040529081600082015481526020016001820160009054906101000a900473ffffffffffffffffffffffffffffffffffffffff1673ffffffffffffffffffffffffffffffffffffffff1673ffffffffffffffffffffffffffffffffffffffff1681526020016002820160009054906101000a900473ffffffffffffffffffffffffffffffffffffffff1673ffffffffffffffffffffffffffffffffffffffff1673ffffffffffffffffffffffffffffffffffffffff1681526020016003820160009054906101000a900473ffffffffffffffffffffffffffffffffffffffff1673ffffffffffffffffffffffffffffffffffffffff1673ffffffffffffffffffffffffffffffffffffffff168152602001600482015481526020016005820154815260200160068201805461231a906132ca565b80601f0160208091040260200160405190810160405280929190818152602001828054612346906132ca565b80156123935780601f1061236857610100808354040283529160200191612393565b820191906000526020600020905b81548152906001019060200180831161237657829003601f168201915b505050505081525050815260200190600101906121c7565b505050509050919050565b60008060009054906101000a900473ffffffffffffffffffffffffffffffffffffffff169050818173ffffffffffffffffffffffffffffffffffffffff166370a08231306040518263ffffffff1660e01b815260040161241691906128e0565b602060405180830381865afa158015612433573d6000803e3d6000fd5b505050506040513d601f19601f820116820180604052508101906124579190613404565b1015612498576040517f08c379a000000000000000000000000000000000000000000000000000000000815260040161248f906136d0565b60405180910390fd5b8073ffffffffffffffffffffffffffffffffffffffff1663a9059cbb33846040518363ffffffff1660e01b81526004016124d3929190612ed7565b6020604051808303816000875af11580156124f2573d6000803e3d6000fd5b505050506040513d601f19601f820116820180604052508101906125169190612f15565b612555576040517f08c379a000000000000000000000000000000000000000000000000000000000815260040161254c9061373c565b60405180910390fd5b8160066000828254612567919061375c565b925050819055505050565b60006040518060e001604052804281526020018873ffffffffffffffffffffffffffffffffffffffff1681526020018773ffffffffffffffffffffffffffffffffffffffff1681526020018673ffffffffffffffffffffffffffffffffffffffff168152602001858152602001848152602001838152509050600860008873ffffffffffffffffffffffffffffffffffffffff1673ffffffffffffffffffffffffffffffffffffffff1681526020019081526020016000208190806001815401808255809150506001900390600052602060002090600702016000909190919091506000820151816000015560208201518160010160006101000a81548173ffffffffffffffffffffffffffffffffffffffff021916908373ffffffffffffffffffffffffffffffffffffffff16021790555060408201518160020160006101000a81548173ffffffffffffffffffffffffffffffffffffffff021916908373ffffffffffffffffffffffffffffffffffffffff16021790555060608201518160030160006101000a81548173ffffffffffffffffffffffffffffffffffffffff021916908373ffffffffffffffffffffffffffffffffffffffff1602179055506080820151816004015560a0820151816005015560c082015181600601908161275c919061396b565b50505060098190806001815401808255809150506001900390600052602060002090600702016000909190919091506000820151816000015560208201518160010160006101000a81548173ffffffffffffffffffffffffffffffffffffffff021916908373ffffffffffffffffffffffffffffffffffffffff16021790555060408201518160020160006101000a81548173ffffffffffffffffffffffffffffffffffffffff021916908373ffffffffffffffffffffffffffffffffffffffff16021790555060608201518160030160006101000a81548173ffffffffffffffffffffffffffffffffffffffff021916908373ffffffffffffffffffffffffffffffffffffffff1602179055506080820151816004015560a0820151816005015560c0820151816006019081612893919061396b565b50505050505050505050565b600073ffffffffffffffffffffffffffffffffffffffff82169050919050565b60006128ca8261289f565b9050919050565b6128da816128bf565b82525050565b60006020820190506128f560008301846128d1565b92915050565b600080fd5b612909816128bf565b811461291457600080fd5b50565b60008135905061292681612900565b92915050565b6000819050919050565b61293f8161292c565b811461294a57600080fd5b50565b60008135905061295c81612936565b92915050565b60008060408385031215612979576129786128fb565b5b600061298785828601612917565b92505060206129988582860161294d565b9150509250929050565b60008115159050919050565b6129b7816129a2565b81146129c257600080fd5b50565b6000813590506129d4816129ae565b92915050565b600080604083850312156129f1576129f06128fb565b5b60006129ff85828601612917565b9250506020612a10858286016129c5565b9150509250929050565b600081519050919050565b600082825260208201905092915050565b6000819050602082019050919050565b612a4f8161292c565b82525050565b612a5e816128bf565b82525050565b600081519050919050565b600082825260208201905092915050565b60005b83811015612a9e578082015181840152602081019050612a83565b60008484015250505050565b6000601f19601f8301169050919050565b6000612ac682612a64565b612ad08185612a6f565b9350612ae0818560208601612a80565b612ae981612aaa565b840191505092915050565b600060e083016000830151612b0c6000860182612a46565b506020830151612b1f6020860182612a55565b506040830151612b326040860182612a55565b506060830151612b456060860182612a55565b506080830151612b586080860182612a46565b5060a0830151612b6b60a0860182612a46565b5060c083015184820360c0860152612b838282612abb565b9150508091505092915050565b6000612b9c8383612af4565b905092915050565b6000602082019050919050565b6000612bbc82612a1a565b612bc68185612a25565b935083602082028501612bd885612a36565b8060005b85811015612c145784840389528151612bf58582612b90565b9450612c0083612ba4565b925060208a01995050600181019050612bdc565b50829750879550505050505092915050565b60006020820190508181036000830152612c408184612bb1565b905092915050565b600060208284031215612c5e57612c5d6128fb565b5b6000612c6c84828501612917565b91505092915050565b612c7e816129a2565b82525050565b6000602082019050612c996000830184612c75565b92915050565b612ca88161292c565b82525050565b6000602082019050612cc36000830184612c9f565b92915050565b600060208284031215612cdf57612cde6128fb565b5b6000612ced8482850161294d565b91505092915050565b600061010082019050612d0c600083018b6128d1565b612d19602083018a612c9f565b612d266040830189612c9f565b612d336060830188612c9f565b612d4060808301876128d1565b612d4d60a08301866128d1565b612d5a60c0830185612c9f565b612d6760e0830184612c9f565b9998505050505050505050565b6000606082019050612d896000830186612c9f565b612d966020830185612c9f565b612da36040830184612c9f565b949350505050565b600082825260208201905092915050565b6000612dc782612a64565b612dd18185612dab565b9350612de1818560208601612a80565b612dea81612aaa565b840191505092915050565b600060e082019050612e0a600083018a612c9f565b612e1760208301896128d1565b612e2460408301886128d1565b612e3160608301876128d1565b612e3e6080830186612c9f565b612e4b60a0830185612c9f565b81810360c0830152612e5d8184612dbc565b905098975050505050505050565b7f4f6e6c79206f776e657200000000000000000000000000000000000000000000600082015250565b6000612ea1600a83612dab565b9150612eac82612e6b565b602082019050919050565b60006020820190508181036000830152612ed081612e94565b9050919050565b6000604082019050612eec60008301856128d1565b612ef96020830184612c9f565b9392505050565b600081519050612f0f816129ae565b92915050565b600060208284031215612f2b57612f2a6128fb565b5b6000612f3984828501612f00565b91505092915050565b7f5472616e73666572206661696c65640000000000000000000000000000000000600082015250565b6000612f78600f83612dab565b9150612f8382612f42565b602082019050919050565b60006020820190508181036000830152612fa781612f6b565b9050919050565b7f4164647265737320697320626c6f636b65640000000000000000000000000000600082015250565b6000612fe4601283612dab565b9150612fef82612fae565b602082019050919050565b6000602082019050818103600083015261301381612fd7565b9050919050565b7f4d7573742073656e642045544800000000000000000000000000000000000000600082015250565b6000613050600d83612dab565b915061305b8261301a565b602082019050919050565b6000602082019050818103600083015261307f81613043565b9050919050565b7f53616c6520746f6b656e206e6f74207365740000000000000000000000000000600082015250565b60006130bc601283612dab565b91506130c782613086565b602082019050919050565b600060208201905081810360008301526130eb816130af565b9050919050565b7f4e487b7100000000000000000000000000000000000000000000000000000000600052601160045260246000fd5b600061312c8261292c565b91506131378361292c565b92508282026131458161292c565b9150828204841483151761315c5761315b6130f2565b5b5092915050565b7f4e487b7100000000000000000000000000000000000000000000000000000000600052601260045260246000fd5b600061319d8261292c565b91506131a88361292c565b9250826131b8576131b7613163565b5b828204905092915050565b7f496e76616c696420616464726573730000000000000000000000000000000000600082015250565b60006131f9600f83612dab565b9150613204826131c3565b602082019050919050565b60006020820190508181036000830152613228816131ec565b9050919050565b7f496e76616c696420726174696f00000000000000000000000000000000000000600082015250565b6000613265600d83612dab565b91506132708261322f565b602082019050919050565b6000602082019050818103600083015261329481613258565b9050919050565b7f4e487b7100000000000000000000000000000000000000000000000000000000600052602260045260246000fd5b600060028204905060018216806132e257607f821691505b6020821081036132f5576132f461329b565b5b50919050565b7f496e76616c696420707269636500000000000000000000000000000000000000600082015250565b6000613331600d83612dab565b915061333c826132fb565b602082019050919050565b6000602082019050818103600083015261336081613324565b9050919050565b7f544f4b454e000000000000000000000000000000000000000000000000000000600082015250565b600061339d600583612dab565b91506133a882613367565b602082019050919050565b600060608201905081810360008301526133cc81613390565b90506133db6020830185612c9f565b6133e86040830184612c9f565b9392505050565b6000815190506133fe81612936565b92915050565b60006020828403121561341a576134196128fb565b5b6000613428848285016133ef565b91505092915050565b7f416d6f756e74206d7573742062652067726561746572207468616e2030000000600082015250565b6000613467601d83612dab565b915061347282613431565b602082019050919050565b600060208201905081810360008301526134968161345a565b9050919050565b7f55534454206e6f7420636f6e6669677572656400000000000000000000000000600082015250565b60006134d3601383612dab565b91506134de8261349d565b602082019050919050565b60006020820190508181036000830152613502816134c6565b9050919050565b600060608201905061351e60008301866128d1565b61352b60208301856128d1565b6135386040830184612c9f565b949350505050565b7f55534454207472616e73666572206661696c6564000000000000000000000000600082015250565b6000613576601483612dab565b915061358182613540565b602082019050919050565b600060208201905081810360008301526135a581613569565b9050919050565b7f55534443206e6f7420636f6e6669677572656400000000000000000000000000600082015250565b60006135e2601383612dab565b91506135ed826135ac565b602082019050919050565b60006020820190508181036000830152613611816135d5565b9050919050565b7f55534443207472616e73666572206661696c6564000000000000000000000000600082015250565b600061364e601483612dab565b915061365982613618565b602082019050919050565b6000602082019050818103600083015261367d81613641565b9050919050565b7f496e73756666696369656e7420746f6b656e2062616c616e6365000000000000600082015250565b60006136ba601a83612dab565b91506136c582613684565b602082019050919050565b600060208201905081810360008301526136e9816136ad565b9050919050565b7f546f6b656e207472616e73666572206661696c65640000000000000000000000600082015250565b6000613726601583612dab565b9150613731826136f0565b602082019050919050565b6000602082019050818103600083015261375581613719565b9050919050565b60006137678261292c565b91506137728361292c565b925082820190508082111561378a576137896130f2565b5b92915050565b7f4e487b7100000000000000000000000000000000000000000000000000000000600052604160045260246000fd5b60008190508160005260206000209050919050565b60006020601f8301049050919050565b600082821b905092915050565b6000600883026138217fffffffffffffffffffffffffffffffffffffffffffffffffffffffffffffffff826137e4565b61382b86836137e4565b95508019841693508086168417925050509392505050565b6000819050919050565b600061386861386361385e8461292c565b613843565b61292c565b9050919050565b6000819050919050565b6138828361384d565b61389661388e8261386f565b8484546137f1565b825550505050565b600090565b6138ab61389e565b6138b6818484613879565b505050565b5b818110156138da576138cf6000826138a3565b6001810190506138bc565b5050565b601f82111561391f576138f0816137bf565b6138f9846137d4565b81016020851015613908578190505b61391c613914856137d4565b8301826138bb565b50505b505050565b600082821c905092915050565b600061394260001984600802613924565b1980831691505092915050565b600061395b8383613931565b9150826002028217905092915050565b61397482612a64565b67ffffffffffffffff81111561398d5761398c613790565b5b61399782546132ca565b6139a28282856138de565b600060209050601f8311600181146139d557600084156139c3578287015190505b6139cd858261394f565b865550613a35565b601f1984166139e3866137bf565b60005b82811015613a0b578489015182556001820191506020850194506020810190506139e6565b86831015613a285784890151613a24601f891682613931565b8355505b6001600288020188555050505b50505050505056fea2646970667358221220a86c6b2802f404498f9d2ed74a2abc5f1c666f3e6518092594aab69cf638632b64736f6c63430008130033",
  "linkReferences": {},
  "deployedLinkReferences": {}
}